:100000000C94200A0C94480A0C94480A0C94480A50
:100010000C94480A0C94480A0C94480A0C94480A18
:100020000C94480A0C94480A0C94EA0F0C9459104A
:100030000C94480A0C94480A0C94480A0C94480AF8
:100040000C94480A0C94480A0C94480A0C94480AE8
:100050000C94480A0C94480A0C94480A0C948B128D
:100060000C94480A0C94480A0C94480A0C94480AC8
:100070000C94480A0C94480A0C94480A0C94480AB8
:100080000C94480A0C94480A0C94480A0C94480AA8
:100090000C94480A0C94480A0C94480A0C94480A98
:1000A0000C94480A0C94480A0C94480A09080078F1
:1000B0007E7E12127E7E00007E7E7A4A4E7E780020
:1000C000007E7E724242666600007E7E7242427E02
:1000D0007E00007E7E7A4A4A4A4200007E7E7A0A8C
:1000E0000A0A0200007E7E724252767600007E7E10
:1000F0007808087E7E00007E7E7000000000000010
:10010000606040407E7E7000007E7E78080E7E78C3
:1001100000007E7E704040400000007E7E720E0235
:100120007E7E00007E7E7202027E7E00007E7E4227
:1001300042467E7E00007E7E7212121E1E00007EEF
:100140007E4262627E7E00007E7E72121E7E7000A3
:10015000006E6E4A4A7A7A780002027E7E7202024D
:100160000000007E7E7040407E7E00000E7E7E405D
:10017000787E0E00007E7E40704E7E7E0000767E91
:10018000780808767600001E1E7070701E1E000033
:100190007676725A4A6E6E00007E7E4242727E7E93
:1001A00000000000707E7E000000007676725252E1
:1001B0005E5E00006666424A7E7E7800001E1E106B
:1001C000707E7E1800006E6E4A4A7A7A7A00007E4F
:1001D0007E4A4A7A7A7A0000020202727E7E00002B
:1001E00000787E4E4A7E7E7800001E1E1212727EBD
:1001F0007E0000585E5E00585E5E003C46C3E9E942
:10020000C3463C003C7EC1C1D5C1463C00111E55D1
:1002100055555545000091400002154000580140D9
:1002200052000552080081480025214005800955EB
:100230005555551E561044404540800001018180AF
:1002400080448008110004080440110801010440A2
:100250006940000004104000101E2E5555555540B1
:10026000000091405000514060020148009409464E
:100270000824254586089560058001555555557D0E
:100280001E555555554000001140040001598999EB
:1002900099446244455998999940040001404000AE
:1002A0004155555555116E15555554404041014124
:1002B00084821150004101619000055001210164C8
:1002C00011101140402419155555544171005555D0
:1002D000550102018904020045100200014002009C
:1002E0000150020405400200414102058155555567
:1002F00055737A5555555540000001145418591836
:100300001844440410545014106464400000014028
:10031000600019555555556C62555555544250005D
:10032000054181480142511801500141915100029B
:10033000616240811150000001155555551E480459
:100340005555541980010162402004110942414170
:100350008620094009400466000010400000405516
:100360005555005D24005555545520000140056247
:100370004948061804400420496604904418054181
:100380005040000444155550411E6C55555555407C
:1003900001000141A0028550201409600668155132
:1003A0004014016092000959500405145555541128
:1003B0005C50014154455615254028008145058172
:1003C000914485614145050111400800014000202C
:1003D0000155555555127115555554410000854428
:1003E00006025140008011480000194400200150CD
:1003F0000088194040211115555554243255555542
:100400005566000099490001414000020140002466
:100410000140020001490000416600009955555510
:1004200055334C1554555440090021448410214043
:1004300040686111012011600010611000800460AB
:100440000000091555555423135555555550620054
:1004500009609800055150080550026401680009C0
:10046000815200558159040001555555551D7C5543
:100470005555554900004144269811401964814959
:10048000000241426009014411641140218001557C
:10049000555555731A555555554802010141980651
:1004A00001406401814081026146404901498484E0
:1004B0000164040041555555557E6E55555555609E
:1004C00014005944100061490250814401800140E8
:1004D0001024014524581149180051555555554DC2
:1004E0004255555555409800015824580544480434
:1004F0001140414109441021115025182540002682
:1005000001555555556769555555554540080540A0
:10051000400045405800214200808540100561425E
:10052000200229555555550000000067695555555D
:10053000556419181140100001601060815180024B
:10054000154840560140044081555555550000005E
:100550000067691555555444191811402040015041
:1005600010218141810A21584052014004408115E7
:100570005555540000000067695555555540040015
:100580000545880165460024154A091401462100E5
:10059000514500456955555555000000006769559E
:1005A00055555540000011485808014060814148A8
:1005B00001418146024021458400015555555500B1
:1005C000000000D5F08D14A1C881CFD9F1AF200073
:1005D00049100000000000000000E020C000E060C2
:1005E0002000E020000000A06F03E12FE00FE108F1
:1005F000606FEB0E808F8800EF602F01EF602F029D
:10060000ED60C30C0300A06000E020E000A06000EB
:10061000E020E000000000000000003C0C043C0072
:100620002C3400053D04003D0521003D2D38003CE3
:1006300021013C013D053C013C0935010C300C0019
:1006400018252C08003D2535003D0D053C003C15C6
:100650003D003D013D200121003D25013C243C00A1
:100660003C0C043C3030F0FCFEFEFFFFFFFFFF7F40
:100670003F1F0F0F0F0707030303030303010101CC
:10068000010101030303030307070F0F1F3F7FFF50
:10069000FFFFFEFEFCF0FFFFFFFF3F1F0701000012
:1006A00000000080C0E0E0F0F0E0E0C000000000EA
:1006B00000C0E0E0F0F0F0E0E0C00000000000006A
:1006C00003071FFFFFFFFFFF0F00000000000000F7
:1006D00000F8FF070100000081E3FF7F0E0000002B
:1006E0003EE3810000000103CFFFFFF8000000009F
:1006F000000000010FFFFFFF0000000000000000ED
:100700000000070F0E1E1E0E0F0703000000000062
:100710000001070F0E0E1E1F0F0F07010000000043
:100720000000000000FFFFFFF0800000000000005C
:1007300000000000000000000000000000000000B9
:1007400000000000000000000000000000000000A9
:10075000000080F0FEFF071F3F7F7FFEF8F0F0F8FB
:10076000F8FCFCF8E0E0C0C0C0C0E0F0F8F8F8F039
:10077000E0C0C080808080E0F0FCFCFCF8F8F8F875
:10078000F8FC7F7F3F0F151526219F17434F4E54CE
:10079000494E5545B0224558495400150A201524A4
:1007A00020262B9F0C434F4E54494E5545AA1752B5
:1007B00045545259AE224E455854B02D45584954CF
:1007C0000085074F4F50536568594F55684841564B
:1007D0004585124E4F684D4F564553684C4546541B
:1007E00065992847414D45684F564552008107435A
:1007F0004F4E47524154554C4154494F4E539E120F
:10080000594F556848415645991D434F4D504C45E9
:100810005445449028594F5552684D495353494FB8
:100820004E8D33494EC7334D4F5645530082366681
:10083000524554525900A0074C4556454C9A124314
:100840004F4D504C45544544901D494EC31D4D4F8E
:10085000564553AB284D4F564553684C454654D2E8
:1008600036674E455854000707007F3E7F3E7F2283
:100870007F3E7F3E7F007F0000000F067F3E7F3E71
:100880007F007F0000007F3A7F3A7F2A7F2E7F2EF5
:100890007F007F0077227F2A7F2A7F3E7F3E7F0076
:1008A0007F001F0E1F0E1F087F3E7F3E7F007F00D0
:1008B0007F2E7F2E7F2A7F3A7F3A7F007F007F3E08
:1008C0007F3E7F2A7F3A7F3A7F007F000702070240
:1008D00007027F3E7F3E7F007F007F3E7F3E7F2A74
:1008E0007F3E7F3E7F007F007F2E7F2E7F2A7F3ED0
:1008F0007F3E7F007F001C1C3E3E7F3A7F367F1C80
:100900003E001C0C0F00000000001C1C3E26FFDEF9
:10091000FFDEFF3EFF1C3E001C00000000001C1C10
:100920003E3A7E2A7F2D7F2C7F2C7F2D7F2A7F3A97
:100930007E1C3E001C000000000000003838FC4C0B
:10094000FEBCFEBCFE7CFE387C00380000001C1C97
:100950003E3A7E2A7F2D7F2C7F2C7F2D7F2A7F3A67
:100960007E1C3E001C00000038387C4CFEBCFEBCE7
:10097000FE7CFE38FC0038000000000000001C1C5B
:100980003E3A7E2A7F2D7F2C7F2C7F2D7F2A7F3A37
:100990007E1C3E001C09090038387C7CFEFEFFFAF4
:1009A000FFFAFF64FE387C00380000000000000001
:1009B00001000100010000000000000B0B0070703E
:1009C000FC8CFE14FE1AFFAAFFC2FF44FE8CFE70D0
:1009D000FC0070000000010103010302070207028E
:1009E000070103010300010000007070FC8CFE345D
:1009F000FE1AFF22FFC2FF64FE8CFE70FC00700036
:100A000000000101030103020702070207010301BD
:100A10000300010000007070FC8CFE74FE12FF22C7
:100A2000FF42FF74FE8CFE70FC00700000000101AC
:100A3000030103020702070207010301030001008B
:100A400000007070FC8CFE64FEC2FF22FF1AFF34AF
:100A5000FE8CFE70FC007000000001010301030227
:100A60000702070207010301030001000000707084
:100A7000FC8CFE44FEC2FFAAFF1AFF14FE8CFE701F
:100A8000FC007000000001010301030207020702DD
:100A9000070103010300010000007070FC8CFE04DC
:100AA000FECAFFAAFF9AFF04FE8CFE70FC007000D5
:100AB000000001010301030207020702070103010D
:100AC0000300010000090900000000000000000010
:100AD000000000000000000000FE2B0503010301E0
:100AE00001FE000101010101010100000038444440
:100AF0004C380000000000000000000000953A4162
:100B00004E5968425554544F4E00771900E0E0F8B2
:100B1000F8FCF8FCFCFEFCFEFCFEFCFE7EFF3E7FCB
:100B20003E7F3E7F3E7F3E7F3E7F3E7F3E7F3E7FDD
:100B30003E7F3E7F3E7F7EFFFCFEFCFEFCFEFCFE19
:100B4000FCFEF8FCF0F800F0000000FEFCFEFCFEED
:100B5000FCFEFCFEFCFEFCFEFCFEFCFEFCFEFCFEC5
:100B6000FCFEFCFEFCFEFCFEFCFEFCFEFCFEFCFEB5
:100B7000FCFEFCFEFCFEFCFEFCFEFCFEFCFEFCFEA5
:100B8000FCFE00FE00000000008080E0E0F8F8FCC1
:100B9000FCFEFCFEFCFEFCFEFCFEFCFEFCFEFCFE85
:100BA000FCFEF8FCE0F880E000800000000000009F
:100BB000000000000000000000000000000000FE37
:100BC000FCFEFCFEFCFEFCFEFCFEFCFEFCFEFCFE55
:100BD000FCFEFCFEFCFEFCFEFCFEFCFEFCFEFCFE45
:100BE000FCFEFCFEFCFEFCFEFCFEFCFEFCFEFCFE35
:100BF000F8FCF8FCF0F8C0F000C00087079F1FBFAA
:100C00003FFF3FFF3FFF7FFF7FFF7EFF7CFE7CFEBD
:100C10007CFE7CFE7CFE7CFE7CFE7CFE7CFE7CFE04
:100C20007CFE7CFE7CFFFDFFFDFFFDFFFDFFF9FF6D
:100C3000F9FFF1FBE0F300E0000100010001000119
:100C400000010001000100010001000100FFFFFFA1
:100C5000FFFFFFFFFFFFFFFFFFFFFFFF00FF0001A0
:100C6000000100010001000100010001000100C1BC
:100C7000C0F1F0FCFCFEFEFFFFFFFFFFFFFFFFFFE8
:100C80009FFF87DF81C780C181C787DF9FFFFFFF8D
:100C9000FFFFFFFFFFFFFEFFFCFEF0FCC0F000C007
:100CA00000000000000000000000000000FFFFFF47
:100CB000FFFFFFFFFFFFFFFFFFFFFFFFE0FFE0F190
:100CC000E0F1E0F1E0F1E0F1E0F1E0F1E0F1E0F19C
:100CD000E0F1E0F1E0F1F1FFFFFFFFFFFFFFFFFFB9
:100CE0007FFF3FFF1F3F001F000F0F3F3F7F7FFF32
:100CF0007FFF7FFFFFFFFFFFFCFFF8FCF8FCF8FC25
:100D0000F8FCF8FCF8FCF8FCF8FCF8FCF8FCF8FC43
:100D1000F8FCF8FCFCFFFFFF7FFF7FFF7FFF7FFFFA
:100D20003F7F0F3F000F00000000000000000000A8
:100D30000000000000000000000000FFFFFFFFFFB8
:100D4000FFFFFFFFFFFFFFFFFFFF00FF00000000AE
:100D5000000000C0C0E0E0F8F8FEFEFFFFFFFFFF6C
:100D6000FFFFFFFF7FFF1F7F0F1F0F1F0F1F0F1FB3
:100D70000F1F0F1F0F1F0F1F0F1F0F1F0F1F0F1F03
:100D80000F1F1F7F7FFFFFFFFFFFFFFFFFFFFEFF24
:100D9000F8FEE0F8C0E000C0000000FFFFFFFFFF2A
:100DA000FFFFFFFFFFFFFFFFFFFF03FF0307030737
:100DB00003070307030703070307030703070307E3
:100DC0000307070F0FFFFFFFFFFFFFFFFFFFFFFFFF
:100DD000FFFFFCFF00FC000000000000000000001E
:100DE00000000001000100010001000100010001FC
:100DF00000010001000100010001000100010001EB
:100E000000010001000100000000000000000000DF
:100E100000000000000000000000000000000000D2
:100E200000000000000000000001000100010001BE
:100E300000010001000100010001000000000000AD
:100E4000000100010001000100010001000100019A
:100E50000001000100000000000000000000000090
:100E60000000000000000000000000000000000082
:100E7000000000010001000100010001000100016B
:100E8000000100010001000000010001000100015B
:100E9000000100010001000100010000000000004D
:100EA0000000000000000000000000000000000042
:100EB000000000010001000100010001000100012B
:100EC00000010001801800FFFEFFFEFFFEFFFEFF95
:100ED000FEFFFEFFFEFF7EFF7EFF7EFF7EFF7EFFAA
:100EE0007EFF7EFF7EFF7EFF7EFF7EFF7EFF7EFF1A
:100EF0007EFF7EFFFEFFFEFFFEFFFCFEFCFEFCFE13
:100F0000F8FCF0F800F00000000000000000000015
:100F100000000000000000C0C0F0F0FCFCFEFEFF7E
:100F2000FEFFFEFFFEFF7EFFFEFFFEFFFEFFFEFF59
:100F3000FCFEF0FCC0F000C000000000000000005B
:100F400000000000000000000000000000FFFEFFA5
:100F5000FEFFFEFFFEFFFEFFFEFFFEFF7EFF7EFFA9
:100F60007EFF7EFF7EFF7EFF7EFF7EFF7EFF7EFF99
:100F70007EFF7EFF7EFFFEFFFEFFFEFFFEFFFCFE0C
:100F8000FCFEF8FCE0F800E0000000FFFEFFFEFFC2
:100F9000FEFFFEFFFEFFFEFFFEFFFEFF00FF000064
:100FA0000000008080C0C0E0E0F0F0F8F8FCFCFE3B
:100FB000FEFFFEFFFEFF7EFF3E7F1E3F0E1F060F61
:100FC00002070003000000FFFFFFFFFFFFFFFFFF1E
:100FD000FFFFFFFFFFFF00FF000000000000000018
:100FE0000000000000000000000000000000000001
:100FF0000000000000FFFFFFFFFFFFFFFFFFFFFFFC
:10100000FFFFFFFFFFFF00FF00000000008080E007
:10101000E0F8F8FEFEFFFFFFFFFFFFFFFFFFFFFF0F
:10102000CFFFC3EFC0E3C0E0C0E3C3EFCFFFFFFFDC
:10103000FFFFFFFFFFFFFFFFFEFFF8FEE0F880E08D
:1010400000800000000000000000000000FFFFFF23
:10105000FFFFFFFFFFFFFFFFFFFFFFFFF0FFF0F8C5
:10106000F0F8F0F8F0F8F0F8F0F8F0F8F0F8F0F840
:10107000F0F8F0F8F0F8F8FFFFFFFFFFFFFFFFFFC9
:10108000BFFF9FFF0F9F000F000000FFFFFFFFFF4C
:10109000FFFFFFFFFFFFFFFFFFFFFFFF3EFF3E7F62
:1010A0003E7F7FFFFFFFFFFFFFFFFFFFFFFFF7FF19
:1010B000E3F7C1E380C100800000000000000000F1
:1010C00000000000000000FF7FFF7FFF7FFF7FFF29
:1010D0007FFF7FFF7FFF7EFF7EFF7EFF7EFF7EFF25
:1010E0007EFF7EFF7EFF7EFF7EFF7EFF7EFF7EFF18
:1010F0007EFF7EFF7FFF7FFF7FFF3F7F3F7F3F7F42
:101100001F3F0F1F00EF60F070FC7CFE7FFF7FFF32
:101110007FFF7FFF7FFF3FFF0F3F070F070F070F87
:10112000070F070F070F070F070F070F070F070F0F
:10113000070F070F0F3F3FFF7FFF7FFF7FFF7FFFFF
:101140007FFF7CFF70FC60F000E0000000FF7FFF8D
:101150007FFF7FFF7FFF7FFF7FFF7FFF01FF010397
:10116000010301030103010301030103010301035F
:1011700001030103030707FF7FFF7FFF7FFF7FFF5F
:101180007FFF7FFF7EFF00FE000000FF7FFF7FFFED
:101190007FFF7FFF7FFF7FFF7FFF7FFF00FF00005C
:1011A00000000000000101030307070F0F1F1F3F8E
:1011B0003F7F7FFF7FFF7FFF7EFF7CFE78FC70F824
:1011C00060F040E000C0404000000000000000006F
:1011D0000000000000808080C070F0F0E0F0787CBB
:1011E000763C3E3A3E1C1B1E1E1B1C3E3A3E3C7685
:1011F0007C78F0E0F0F070C080808000000000009B
:101200000000000000000000000000000000C0E03E
:1012100040F0F8F07E1D1F0F0703010100000000E1
:1012200000000000000000000000000000000000BE
:1012300000000000010103070F1F1D7EF4F8F040BD
:10124000E0C0000000000000000000F0B8F8F33F2C
:101250000F0301000000000000000000000000007B
:10126000000000000000000000000000000000007E
:101270000000000000000000000000000001030F5B
:101280003FF3F8B8F0000000E0B8FCF5FF1F0100E4
:10129000000000000000000000000000000000004E
:1012A000000000000000000000000000000000003E
:1012B000000000000000000000000000000000002E
:1012C00000011FFFF5BCB8E000B6BFEFFFF88000DB
:1012D000000000000000000000000000000000000E
:1012E00000000000000000000000000000000000FE
:1012F00000000000000000000000000000000000EE
:101300000080F8FFEFBFB60000000115777FBFFC3B
:10131000F0C080000000000000000000000000009D
:1013200000000000000000000000000000000000BD
:101330000000000000000000000000000080C0F07D
:10134000FCBF7F77150100000000000000000000D6
:1013500006075F3FACF8F0B0E0C0808000000000FE
:10136000000000000000000000000000000000007D
:10137000000000008080C060F0F0F8AC3F5F07071D
:10138000010000000000000000000000000000005C
:101390000000000000010200070F031B1F0B3A3E74
:1013A0001E6C7C7C18D878F8F878D8187C7C6C0E89
:1013B0003E3A0F1F1B030F07000201000000000050
:1013C0000000000000000000080B00020202000004
:1013D0000904000001020200000524001001052498
:1013E000010101042402060524060001070581030A
:1013F00010004009040100020A0000000705020273
:1014000040000007058302400000040309041201A4
:101410000002EF0201404123368000010102030176
:1014200041726475696E6F204C4C43004172647563
:10143000696E6F204C656F6E6172646F0000D5122B
:1014400011241FBECFEFDAE0DEBFCDBF11E0A0E078
:10145000B1E0E2E2F1E302C005900D92AC32B107D7
:10146000D9F726E0ACE2B1E001C01D92A236B20786
:10147000E1F71AE0C0E2DAE004C02197FE010E9421
:101480008918CF31D107C9F70E94F7120C948F1831
:101490000C9400006F927F928F929F92AF92BF92B6
:1014A000CF92DF92EF92FF920F931F93CF93DF9330
:1014B000DC01FA011491319654913196C12FD0E09C
:1014C000222309F1CC24C394D12C852F877011F4E9
:1014D000D12CC12CE52EE694E694E694EC0CFD2C80
:1014E000F11CEC9EC001ED9E900DFC9E900D112410
:1014F000033011F4880F991F289F7001299FF00C69
:101500001124EE0DFF1D7D01EC0EFD1E1E141F04A7
:101510000CF031C1A038B1050CF02DC1CB01850F05
:10152000911D181619060CF026C1603471050CF0D7
:1015300022C1309709F41FC1362F3770CB0177FDD8
:10154000079623E0959587952A95E1F7282F77FF51
:1015500004C0332311F02FEF280F662777276A1B6B
:101560007B0BB7FD02C070E060E090E89A1B40E89A
:10157000E416F1040CF4912F961BE22E022E000CBF
:10158000FF08DE2CD0942F3F0CF0D12C41E0852FAA
:10159000877009F440E0B52EB694B694B6944B0D1E
:1015A000E40EF11C89E0E816F10414F048E0421B57
:1015B000B42EBD182D0D40E8240370011124AE0D8A
:1015C000BF1DA60FB71F1D9D600D711D1124AF011A
:1015D000460F571FC32E032E000CDD08033009F4FD
:1015E0007EC00A3F09F441C0023009F0C4C06FEF69
:1015F00070E0032E02C0660F771F0A94E2F7609531
:101600007095972E8B2C820E281509F4B4C08D018D
:10161000095F1D4FF12CE12CE91608F054C0FA01C6
:10162000EE0DFF1DE491F0E03F010C2C02C0660CB2
:10163000771C0A94E2F727FD05C0F8018081862314
:1016400086298083332359F027304CF45801F0E881
:10165000AF0EB11CF5018081892187298083FFEFBE
:10166000EF1AFF0A0F5F1F4FD7CFB20E2B1509F4E9
:1016700082C0BD01695F7D4F10E000E0091748F5A9
:10168000FA01E00FF11FE491F0E04F010C2C02C0D1
:10169000880C991C0A94E2F727FD04C0FB018081A5
:1016A00088298083332351F0273044F47B01F0E80C
:1016B000EF0EF11CF7018081892980830F5F1F4F96
:1016C0006F5F7F4FDBCF2F5F4C0F5D1FA058BF4F69
:1016D0009BCF2F5F4C0F5D1FA058BF4FC7CFE92E88
:1016E000F12CFA01E60FF71FA95FBD4F60E870E02B
:1016F0006E197F09CE19DF098E01000F111F41E01D
:1017000050E07A01032E01C0EE0C0A94EAF7592F3B
:101710004B2D892E932ECF93DF93ED01EF96EF960D
:101720002296A590C590992059F0AE9C5001CE9C70
:10173000600127302CF4F880D094FD20FB28F9922A
:1017400022233AF0FC90C094FC20FA28FD920C94DD
:10175000AA0B11965A9529F74A9551F0582D2395C1
:101760001124E00FF11DA60FB11DC60FD11DD9CF59
:10177000DF91CF911124DF91CF911F910F91FF90B5
:10178000EF90DF90CF90BF90AF909F908F907F9021
:101790006F90089590915D06982329F490915C06CE
:1017A000982381E009F480E00895E7E0F2E081E029
:1017B000A0E0B8E000800EBC8111012C1197A0FDC3
:1017C000FDCF0192B9F70DB408958FB7F894409109
:1017D00003025091040260910502709106028FBFCE
:1017E00080915F06942F981B80916006882331F0CA
:1017F000909361061092600680E0089520915E0645
:10180000921740F49F5F9217A0F491E093BF8895E0
:1018100013BE089581E08093600640935F06809137
:101820005A0690915B06019690935B0680935A0648
:1018300081E00895FC0180910202882311F13FB7F5
:10184000F89482E08093E9002091F200822F90E0EA
:101850001816190614F481E090E0882339F02898CE
:1018600044E6409301024091F1004083222339F085
:101870002091F200211103C02BE62093E8003FBF26
:1018800008958FEF9FEF08952FB7F89483E080932A
:10189000E9009091E800892F807295FF04C0909133
:1018A000F20080E4891B2FBF08958091F901811116
:1018B0000DC082E08093F50184E08093F6011092E0
:1018C000F8011092F70181E08093F90185EF91E032
:1018D0000895CF93DF931F92CDB7DEB76983DC0104
:1018E000ED91FC910280F381E02D41E050E0BE01DA
:1018F0006F5F7F4F09950F90DF91CF91089583E03F
:101900008093E9008091F200882319F08AE38093A4
:10191000E80008950E94440C90E00895CF93DF936F
:101920001F92CDB7DEB7FC018485958597FD08C071
:101930002FEF3FEF358724870F90DF91CF910895E8
:10194000CE0101960E941A0C019719F4898190E04A
:10195000F3CF8FEF9FEFF0CF0F931F93CF93DF93D2
:101960001F92CDB7DEB78C01FC018485958597FF6A
:101970000BC0CE0101960E941A0C019771F4898167
:1019800090E0F80195878487F801848595850F900C
:10199000DF91CF911F910F9108958FEF9FEFF1CFBE
:1019A000FC018485958597FD0BC09FB7F89482E074
:1019B0008093E9008091F2009FBF90E00196089526
:1019C0009FB7F89482E08093E9008091F2009FBF76
:1019D00090E008954091EF015091F0012091ED01C8
:1019E0003091EE0142175307B4F49091E8009570DE
:1019F000E1F39091E80092FD19C08093F10080918D
:101A0000EF019091F00101968F739927892B19F4BA
:101A10008EEF8093E8008091EF019091F0010196A4
:101A20009093F0018093EF0181E0089580E00895A4
:101A3000EF92FF920F931F93CF93DF93F82E192FFE
:101A4000E62E042F81E0860F880F0E94EA0C83E0C7
:101A50000E94EA0CCF2DD12FEC0EFD2EF11CCE15DD
:101A6000DF05B9F007FF13C0FE0184910E94EA0C64
:101A7000182F80E00E94EA0C812321968111EFCF7C
:101A8000DF91CF911F910F91FF90EF900895888182
:101A9000EDCF81E0F5CFDF92EF92FF920F931F938E
:101AA000CF93DF93D82E8A01EB017B01E40EF51E64
:101AB000CE15DF0559F0D7FE12C0FE0184910E94B9
:101AC000EA0C21968111F4CF0FEF1FEFC801DF91CF
:101AD000CF911F910F91FF90EF90DF900895888133
:101AE000EECF0F931F93CF93DF931F92CDB7DEB747
:101AF00082E0898342E450E068EC73E180E80E9470
:101B00004B0D0E94550CDC0112960D911C91011594
:101B1000110589F0D801ED91FC910280F381E02D4F
:101B2000BE016F5F7F4FC801099597FD04C0F801A2
:101B300000851185ECCF89810F90DF91CF911F91A6
:101B40000F910895615030F02091F100FC01208345
:101B50000196F8CF289884E68093010208953FB754
:101B6000F89480912F0190913001A0913101B091B2
:101B7000320126B5A89B05C02F3F19F00196A11D83
:101B8000B11D3FBFBA2FA92F982F8827BC01CD01C7
:101B9000620F711D811D911D42E0660F771F881F26
:101BA000991F4A95D1F708958F929F92AF92BF9255
:101BB000CF92DF92EF92FF926B017C010E94AF0DFA
:101BC0004B015C01C114D104E104F104B9F00E949D
:101BD000AF0D681979098A099B09683E7340810530
:101BE000910580F321E0C21AD108E108F10888EEDE
:101BF000880E83E0981EA11CB11CE4CFFF90EF90EB
:101C0000DF90CF90BF90AF909F908F9008958F926C
:101C10009F92AF92BF92CF92DF92EF92FF920F937B
:101C20001F93CF93DF936C017B018A0180910B019D
:101C3000882309F45CC080910202882309F457C00C
:101C40008091F40180FF05C08091E0008260809364
:101C5000E000E801B12C8AEFA82E93E0892E2AE358
:101C6000922E209711F4BB20D9F10E94440C8111CF
:101C70000AC0AA94AA20D9F161E070E080E090E067
:101C80000E94D40DEECF8C171D0611F00CF08C2F96
:101C90009FB7F8948092E9002091E80025FD02C0EA
:101CA0009FBFDFCF282F30E0C21BD30BF70181503D
:101CB00020F041914093F100FACFE20EF31EBB20D9
:101CC00021F09092E800B12CEBCF8091E80085FDE7
:101CD000E7CF9092E800BB24B394209709F3F3CFA9
:101CE0005D9884E68093F301101611063CF081E0C4
:101CF00090E0F6019383828310E000E0C801DF9159
:101D0000CF911F910F91FF90EF90DF90CF90BF90F8
:101D1000AF909F908F9008950F9303E00E944A0A1E
:101D20000F9108950F930AEF0E944A0A0F910895A8
:101D3000BC0190E080E00C94D40D8FB18095807F41
:101D4000669B88601C9B8460089508951092E8014A
:101D50001092EA011092E9011092EC0108959EEFB1
:101D60009093070283E08093080290938602809309
:101D700085029FE79093870580EC80938805909378
:101D8000060680930506E9E0F2E091E080E8919391
:101D9000DF01A158BC4F8C9322E0E538F207B9F778
:101DA0008FEF8093870280930603809307038093CD
:101DB00086038093870380930604809307048093AF
:101DC000860480938704809306058093070580939B
:101DD000860508951092E601109235011092E501F2
:101DE0008091EB0126E2829FC0011124835F9D4F09
:101DF00040E030E020E0A3EEB1E0B9016370772766
:101E0000672B19F40197FC015491652F63706E9351
:101E1000623009F44F5F569556952F5F3F4F20393A
:101E2000310559F740935201FC01319724912093D9
:101E30003F010297FC01849180933601982F92957F
:101E40009F70909337018F7080933801880F880FAF
:101E5000880F80933901990F990F990F90933A0148
:101E6000822F82958F7080934001E22FEF70E09374
:101E70004101EE0FEE0FEE0FE0934201880F880F45
:101E8000880F8093430186E391E09093E40180936F
:101E9000E30182E08093EC010895E091E301F09189
:101EA000E4013181380F393060F52281260F20316D
:101EB00040F5932F9295907F920FA92FB0E0AD5AE5
:101EC000BE4F4C914130E9F0423021F441E0EF3314
:101ED000F407B9F040913F01491799F0409136015C
:101EE000491779F09083318322836583868388E064
:101EF00087838091E5018F5F8093E50181E0809386
:101F0000E60108950F931F93CF93DF93C0912D01A6
:101F10001FEF180F813428F010912C01883651F4EE
:101F2000CB5FC0932D0110932C01DF91CF911F91B6
:101F30000F91089587FD16C0D82F2FEB280F612F22
:101F400070E002E04CEA50E08C2F90E00E944A0AD8
:101F5000D93431F3DC3411F0D43511F4C95FE1CF59
:101F6000C75FDFCFC0E8C80FDCCFCF93DF93EC01B2
:101F7000FE0184912196882319F00E94820FF8CFE8
:101F8000DF91CF910895EF92FF921F93CF93DF934C
:101F9000952F122F80932D0160932C018AE0E82E5B
:101FA000F12C115088F0842FB7010E946118D62FB0
:101FB000C72F855A0E94820F4D2F9C2F80912D0193
:101FC000825180932D01EDCFDF91CF911F91FF9032
:101FD000EF9008951F920F920FB60F9211248F93D6
:101FE0009F938091E1009091E100937F9093E100B5
:101FF00083FF0FC01092E90091E09093EB001092E4
:10200000EC0092E39093ED001092020298E090931E
:10201000F00082FF22C093E09093E9009091F200DB
:10202000992319F09AE39093E8009091F301992392
:1020300041F09091F30191509093F301911101C0FF
:102040005D9A90910102992341F090910102915083
:1020500090930102911101C0289A84FF18C08091C9
:10206000E2008E7E81608093E2008091E1008F7EAD
:102070008093E1008091F4018E7E80618093F40171
:102080009F918F910F900FBE0F901F90189580FF1A
:10209000F7CF8091E2008E7E80618093E200809194
:1020A000E1008E7E8093E1008091F4018E7E81605C
:1020B000E5CF1F920F920FB60F921124CF92DF92AD
:1020C000EF92FF920F931F932F933F934F935F9342
:1020D0006F937F938F939F93AF93BF93EF93FF93F0
:1020E000CF93DF93CDB7DEB76C97DEBFCDBF109235
:1020F000E9008091E80083FF25C068E0CE014596A5
:102100000E94A20D82EF8093E8008D8987FF39C07D
:102110009091E80090FFFCCF982F907609F034C1A1
:102120009E894F89588D2F89F88C911131C0803844
:1021300061F58091F2018093F1001092F1008EEF31
:102140008093E8006C960FB6F894DEBF0FBECDBF4B
:10215000DF91CF91FF91EF91BF91AF919F918F91BF
:102160007F916F915F914F913F912F911F910F91AF
:10217000FF90EF90DF90CF900F900FBE0F901F90C9
:1021800018959EEF9093E800C7CF1092F100D5CF3D
:10219000913059F48111D3CF4130510581F68091AE
:1021A000F2018D7F8093F201CACF933049F48111FF
:1021B000C6CF4130510519F68091F2018260F2CF0D
:1021C000953041F48091E80080FFFCCF2068209397
:1021D000E300B5CF963009F0A9C00B8D1C8D22E02D
:1021E0001092E9001092F0011092EF01F2122EC04D
:1021F0001092EE011092ED010E94710D1F8299E084
:102200009983FA8291E09E8390EA98879AEF998762
:102210002091EF013091F001275F3F4F3C832B83EA
:102220008D831092E9001092F0011092EF0110934B
:10223000EE010093ED0149E050E0BE016F5F7F4F7A
:1022400080E00E944B0D0E94710D79CF1093EE013A
:102250000093ED010E94550CDC0112960D911C912A
:102260000115110509F451C1D801ED91FC910480CB
:10227000F581E02DBE016B5E7F4FC8010995009787
:1022800009F03EC1F80100851185EACFF3E0FF12A5
:102290000EC08F89882309F440C0823061F440E881
:1022A00060E18CE294E10E94180D811148CF81E237
:1022B0008093EB0047CF813029F440E86BE080E267
:1022C00094E1F1CF833099F70E94550CDC0112960E
:1022D000ED90FC908E010F5F1F4F6801E114F10437
:1022E00079F0D701ED91FC910680F781E02DB801DE
:1022F000C7010995080F111DF701E084F184EECFA5
:10230000D8011C92F60101900020E9F73197BF0136
:102310006C197D0940E0C601C6CF6AE074E1FB019B
:10232000449150E080E80E944B0D09CF973009F4AA
:10233000BECF983021F481E08093F10000CF993036
:1023400009F0FDCE837009F0B2CFEDE0F1E081E05D
:1023500031E096E32191222371F08093E9003093DC
:10236000EB00DF0111972C912093EC009093ED008E
:102370008F5F873079F78EE78093EA001092EA004A
:102380008F8980930202DBCE8B8D9C8D1092E900A9
:102390001092F0011092EF019093EE018093ED0105
:1023A000898D811192C08E899D89913A49F481323B
:1023B00009F07DCF47E050E064E071E080E0B3CF0A
:1023C000913209F074CF833269F48F89988DB0E02F
:1023D000A0E08093000190930101A0930201B093CB
:1023E0000301ADCE803269F48091E80082FFFCCF1A
:1023F00067E084E091E00E94A20D8BEF8093E800FB
:102400009ECE823209F09BCE8F8980930B01EEEF36
:10241000FFE7859194918B3F9C4D51F1E0E0F8E00E
:102420008091040190910501A0910601B0910701EE
:10243000803B9440A105B105F1F480910B0180FD32
:102440001AC0EE3F8AE0F80789F587E797E791839E
:102450008083809160008093F10188E19BE00FB65A
:10246000F894A895809360000FBE9093600067CEAB
:10247000EEEFFAE0D5CF808191818737974709F059
:102480005ECEA89580916000886180936000809105
:10249000F10180936000EE3F2AE0F20789F080911D
:1024A000FE0A9091FF0A9183808349CE80819181B9
:1024B0008737980751F29093FF0A8093FE0AC5CFA1
:1024C0001092FF0A1092FE0A3ACE0E94550CDC01CF
:1024D00012960D911C910115110509F4E8CED80151
:1024E000ED91FC910190F081E02DBE016B5E7F4F7C
:1024F000C8010995811123CEF80100851185EBCF24
:10250000181619060CF41BCED2CEF1E0FF12BECE87
:102510006EE074E104CF1F920F920FB60F92112458
:102520002F933F938F939F93AF93BF938091030219
:1025300090910402A0910502B091060230912E0103
:1025400023E0230F2D3758F50196A11DB11D2093CF
:102550002E018093030290930402A0930502B0938E
:10256000060280912F0190913001A0913101B0912C
:1025700032010196A11DB11D80932F01909330016E
:10258000A0933101B0933201BF91AF919F918F9190
:102590003F912F910F900FBE0F901F90189526E836
:1025A000230F0296A11DB11DD2CFE7E0F6E0138202
:1025B000128288EE93E0A0E0B0E084839583A68346
:1025C000B78387E191E0918380838FEF9FEF9587B9
:1025D0008487E7E5F6E089E291E0918380831582C4
:1025E000168280E187831482138211860895CF9327
:1025F000DF9300D000D01F92CDB7DEB7789484B5BA
:10260000826084BD84B5816084BD85B5826085BDEE
:1026100085B5816085BD80916E00816080936E007C
:10262000109281008091810082608093810080916E
:10263000810081608093810080918000816080931F
:102640008000809191008260809391008091910040
:1026500081608093910080919000816080939000D0
:102660008091C10084608093C1008091C10082602C
:102670008093C1008091C10081608093C1008091EE
:10268000C30081608093C3008091C000826080930A
:10269000C0008091C20081608093C20080917A0066
:1026A000846080937A0080917A00826080937A00BF
:1026B00080917A00816080937A0080917A008068AE
:1026C00080937A00109202021092F2011092F401AB
:1026D0008091D70081608093D70080EA8093D800F2
:1026E00089B5806189BD89B5826089BD09B400FE64
:1026F000FDCF61E070E080E090E00E94D40D809119
:10270000D8008F7C80618093D8008091E000807F2A
:102710008093E0008091E1008E7E8093E1008DE067
:102720008093E200559A209A81EC80937C0085B1D9
:10273000806F85B984B1877E84B984B1876E84B98E
:102740005E9A5F988AB1806D8AB9769A6E9881B3E5
:10275000806F81BB899880B38D7080BB80E58CBD14
:1027600081E08DBD85E090E00E94980E5F9A85E043
:1027700090E00E94980E5E985C98E3ECF5E080EDA6
:1027800095E024912EBD00000DB407FEFDCF3196DB
:102790008E179F07B1F75C9A81E88093640080915F
:1027A00065008160809365000E949D0E87FF15C0C3
:1027B0005C9885EA8EBD00000DB407FEFDCF5C9AE3
:1027C0002E982F982D9880916400806280936400E9
:1027D00081E083BF889513BEFCCF0E949D0E82FFCF
:1027E00046C02D980E949D0E84788438D9F42D9A85
:1027F00088EC90E00E94980E2F9882E090E00E9472
:102800003F188F3F29F06FEF82E090E00E94471859
:1028100084EF91E00E94980E2F9A0E949D0E84787A
:102820008438D9F30E949D0E84718431D9F42D9A95
:1028300088EC90E00E94980E2E9882E090E00E9432
:102840003F18882329F060E082E090E00E9447185A
:1028500084EF91E00E94980E2E9A0E949D0E847142
:102860008431D9F388EC90E00E94980EB6CF2D9A6F
:1028700020E830E03D832C830E94E50B8823E1F3C0
:1028800020E044E656E070E060E08C819D810E948B
:10289000920E3C81383249F420E040ED55E062E38D
:1028A00070E08CE190E00E94920E0E94D50B8C812A
:1028B0009D8102979D838C838697F1F68CED95E040
:1028C0000E94980E412C5524539411E00AE0C12C2B
:1028D000DD24DA9460E0262E60E0362E0E94E50BBF
:1028E0008823B1F080915C0680935D060E949D0E66
:1028F00080935C068091EC01833009F403C370F48B
:10290000882309F464C0823009F4E3C00E94D50B27
:102910002114310419F30E940000D7CF863009F446
:1029200072C3873099F7309133013B8380E80E946E
:10293000CA0B882319F08B8181508B8380E10E9420
:10294000CA0B882319F09B819F5F9B830E94AF0E67
:102950008091E701882309F45DC3EB81E370EB8389
:1029600083EA97E00E94B50FFB818F2F90E0880FDC
:10297000991FFC01E456F84F64918556984FFC016D
:10298000849170E020E045E959E090E00E948C0ECF
:102990000E949D0E811102C01093E8018091E80110
:1029A000882369F08CE00E94CA0B882341F01092C2
:1029B000E801FB81F11141C382E08093EC019B812E
:1029C000892F90E090933401809333019FCFE09062
:1029D000E901F090EA0160E46E1990E4E916F1046F
:1029E00008F060E070E020E046EC51E180E290E029
:1029F0000E94920EE0E5EE16F10408F457C0F0E9EB
:102A0000EF16F10408F055C02E2D2195220F205EFF
:102A10002B839B81892F90E09D838C8320E044EC65
:102A20005EE068E070E00E948C0E20E04AE05BE02F
:102A300060E270E084E090E0EC81FD818E1B9F0BF2
:102A40000E948C0EF0E9EF16F10430F00E949D0E0A
:102A5000882389F11093E8018091E9019091EA01BE
:102A60009D838C83883B910578F08DEF9AE00E94DE
:102A7000B50FEC81FD81E03DF10530F020EA30E05A
:102A80003093EA012093E9018091E80181113ECF62
:102A90008091EC0181113ACF8091E9019091EA0196
:102AA00001969093EA018093E90130CF30E83B83AF
:102AB000B0CF1B82AECF8091E801882369F21093DA
:102AC000EB0125E02093E7010E94A60E0E94EA0E8A
:102AD000C3CF8091E601811160C18091E501209111
:102AE000E9013091EA01820F932F911D81159440E5
:102AF00020F086E08093EC01A4C088E00E94CA0B1D
:102B0000882311F087E0F6CF84E00E94CA0B882367
:102B100009F48FC0E091E301F091E4018381109208
:102B2000480180934901848110924A0180934B01AE
:102B3000B091420180913901B81BA091430180916D
:102B40003A01A81B2B2F0B2E000C330BB90137FFBA
:102B500004C066277727621B730B6B834A2F0A2EEC
:102B6000000C550BCA0157FF04C088279927841B06
:102B7000950B8C8386173CF550924D0140924C0189
:102B8000B7FF04C0D0924D01C0924C01942F062E85
:102B9000000C770B80E00E94751870934F016093D2
:102BA0004E012B8120935001E653F14029F5EFE3CC
:102BB000F1E0F093E401E093E3011092510182E02F
:102BC0008093E6013EC050924F0140924E01A7FF14
:102BD00004C0D0924F01C0924E01922F682F880FEF
:102BE000770B80E00E94751870934D0160934C0143
:102BF0003C8130935001D8CF80914C0190914D0190
:102C000091958195910990934D0180934C0180910C
:102C10004E0190914F0191958195910990934F01AB
:102C200080934E0126E331E03093E4012093E301E9
:102C3000C4CF0E949D0E87FF9DC060E08FEF0E9471
:102C40004D0F80915A0690915B0665E070E00E94FE
:102C50006118892B81F4809147018F5F66E00E94A3
:102C6000551890934701809151018F5F63E00E9456
:102C700055189093510143E5A42E41E0B42E8CEFFA
:102C80009FEF9D838C834501F12CE12CF401219170
:102C90004F0145EC5AE06C817D81C7010E94920E84
:102CA000F8E0EF0EF11C20E8E216F10479F730E1CC
:102CB000A30EB11C8C819D8108969D838C838434E6
:102CC000910509F760914301062E000C770B6550C2
:102CD000710980914201082E000C990B2091470147
:102CE0004BEB59E001970E948C0E60913A01062E41
:102CF000000C770B645071098091390120913E01DD
:102D000045E959E0082E000C990B0E948C0E809129
:102D1000E6018230C1F480914B01682E782E770C49
:102D20007708B30169507109809149018983880F3F
:102D3000880B8A832091510143E059E089819A816F
:102D400002970E948C0E1B828091E7019B8198174D
:102D500008F09FC0E6E09E9FC00111242AE047E6EC
:102D600058E06FEF7FEF02960E948C0EFB81FF5FB1
:102D7000FB83EACF0E949D0E84FF03C060E081E0E8
:102D80005ECF0E949D0E6FEF85FD05C00E949D0ED7
:102D900086FF57CF61E080E052CF8130B1F5E091FE
:102DA000E301F091E4018781882359F09381258123
:102DB000920F938394812681920F9483815087830D
:102DC00040CF1092E601A081B0E0AD5ABE4F8C9189
:102DD000823031F4809152011C92815080935201D3
:102DE00080915201882379F0658186810E944D0F80
:102DF0008091E601813009F024CF8091E501815076
:102E00008093E5011ECF83E0DBCE8230C9F580914F
:102E1000500140914C0150914D018823E1F02091E7
:102E2000480130914901240F351F30934901209307
:102E3000480120914A0130914B0140914E0150913F
:102E40004F01240F351F30934B0120934A018150CD
:102E500080935001F6CE452B31F480914E01909134
:102E60004F01892B51F010924D0110924C0110929C
:102E70004F0110924E018FE0EBCF1092E601E1CEB0
:102E8000833009F0DECE0E949D0E8111DACE83E000
:102E900031CE8091E50127E730E03D832C83602F20
:102EA0000E945518F82E292F47E658E06FEF7FEF64
:102EB0008C819D810E948C0E8F2DEC81FD81369737
:102EC000FD83EC83E536F10551F78091EB01602F2E
:102ED0000E9455188B83292F47E658E069E370E07C
:102EE00088E790E00E948C0E8B81602F0E9455181D
:102EF000292F47E658E069E370E082E790E00E94FE
:102F00008C0E04CDB090EB01F091E5012F2F30E055
:102F10003D832C83E090E901F090EA0188E18B1574
:102F200008F456C00E94AF0E86E398E00E94B50FE9
:102F30004B2D50E022E066E087E50E94C30F23E0BE
:102F40004C815D816CE185E30E94C30F40E054E059
:102F50004E195F09EC81FD814E1B5F0B24E067E297
:102F60008EE10E94C30F0E949D0E982EA090E70153
:102F7000AA2051F08DE298E00E94B50F93FE04C0A4
:102F8000109335011093E80192FE03C01093E801FD
:102F9000BDCC9110BBCC8091E801882309F4B6CC5C
:102FA0001092E80180913501882331F0AA94A09213
:102FB000E7010E94EA0EAACC2C813D812E0D3F1D17
:102FC0003093EA012093E901B394B092EB01F1CF81
:102FD0000E94AF0E8DEE97E00E94B50F4C815D818F
:102FE0004E0D5F1D24E062E38AE30E94C30F0E943E
:102FF0009D0E8C7059F68091E801882309F486CCE7
:103000000E94A60E83CC0E94AF0E81EC97E00E9436
:10301000B50FEDCFFB81F170FB838AE897E00E944A
:10302000B50F2B81822F90E0880F991FFC01E95783
:10303000F84F64918A57984FA2CC8091E70188237A
:10304000D9F02B812330C1F081508093E7012230E9
:1030500079F48091EB018F5F8093EB018091E9011E
:103060009091EA018C599F4F9093EA018093E90176
:103070000E94EA0E1B82A3CC0E94A60EFBCFF999F8
:10308000FECF92BD81BDF89A992780B50895262F6D
:10309000F999FECF1FBA92BD81BD20BD0FB6F8943D
:1030A000FA9AF99A0FBE01960895991B79E004C027
:1030B000991F961708F0961B881F7A95C9F7809577
:1030C0000895AA1BBB1B51E107C0AA1FBB1FA6176F
:1030D000B70710F0A61BB70B881F991F5A95A9F7C1
:1030E00080959095BC01CD01089597FB072E16F4AD
:1030F000009407D077FD09D00E94611807FC05D025
:103100003EF4909581959F4F0895709561957F4FFE
:103110000895EE0FFF1F0590F491E02D0994F894A7
:02312000FFCFDF
:10312200FFFFFFFF00E100000000000000C18081FE
:1031320000000000000000690C070E8A0C7F0CD012
:0C3142000C8E0CAC0C00000000A50E0070
:00000001FF
